{
  "_format": "hh3-artifact-1",
  "contractName": "AgentPassport",
  "sourceName": "contracts/AgentPassport.sol",
  "abi": [
    {
      "inputs": [],
      "stateMutability": "nonpayable",
      "type": "constructor"
    },
    {
      "anonymous": false,
      "inputs": [
        {
          "indexed": false,
          "internalType": "string",
          "name": "id",
          "type": "string"
        },
        {
          "indexed": false,
          "internalType": "string",
          "name": "name",
          "type": "string"
        },
        {
          "indexed": false,
          "internalType": "string",
          "name": "creator",
          "type": "string"
        },
        {
          "indexed": false,
          "internalType": "uint8",
          "name": "trustScore",
          "type": "uint8"
        }
      ],
      "name": "AgentRegistered",
      "type": "event"
    },
    {
      "anonymous": false,
      "inputs": [
        {
          "indexed": false,
          "internalType": "string",
          "name": "agentName",
          "type": "string"
        },
        {
          "indexed": false,
          "internalType": "string",
          "name": "creator",
          "type": "string"
        },
        {
          "indexed": false,
          "internalType": "string",
          "name": "reason",
          "type": "string"
        }
      ],
      "name": "BlacklistAdded",
      "type": "event"
    },
    {
      "anonymous": false,
      "inputs": [
        {
          "indexed": false,
          "internalType": "string",
          "name": "agentId",
          "type": "string"
        },
        {
          "indexed": false,
          "internalType": "string",
          "name": "website",
          "type": "string"
        },
        {
          "indexed": false,
          "internalType": "string",
          "name": "action",
          "type": "string"
        }
      ],
      "name": "StampAdded",
      "type": "event"
    },
    {
      "anonymous": false,
      "inputs": [
        {
          "indexed": false,
          "internalType": "string",
          "name": "id",
          "type": "string"
        },
        {
          "indexed": false,
          "internalType": "uint8",
          "name": "oldScore",
          "type": "uint8"
        },
        {
          "indexed": false,
          "internalType": "uint8",
          "name": "newScore",
          "type": "uint8"
        },
        {
          "indexed": false,
          "internalType": "string",
          "name": "reason",
          "type": "string"
        },
        {
          "indexed": false,
          "internalType": "uint256",
          "name": "timestamp",
          "type": "uint256"
        }
      ],
      "name": "TrustScoreChanged",
      "type": "event"
    },
    {
      "anonymous": false,
      "inputs": [
        {
          "indexed": false,
          "internalType": "string",
          "name": "id",
          "type": "string"
        },
        {
          "indexed": false,
          "internalType": "string",
          "name": "oldStatus",
          "type": "string"
        },
        {
          "indexed": false,
          "internalType": "string",
          "name": "newStatus",
          "type": "string"
        }
      ],
      "name": "VerificationStatusChanged",
      "type": "event"
    },
    {
      "anonymous": false,
      "inputs": [
        {
          "indexed": false,
          "internalType": "string",
          "name": "agentId",
          "type": "string"
        },
        {
          "indexed": false,
          "internalType": "string",
          "name": "website",
          "type": "string"
        },
        {
          "indexed": false,
          "internalType": "string",
          "name": "status",
          "type": "string"
        }
      ],
      "name": "VisaIssued",
      "type": "event"
    },
    {
      "inputs": [
        {
          "components": [
            {
              "internalType": "string",
              "name": "id",
              "type": "string"
            },
            {
              "internalType": "string",
              "name": "agentId",
              "type": "string"
            },
            {
              "internalType": "string",
              "name": "website",
              "type": "string"
            },
            {
              "internalType": "string",
              "name": "action",
              "type": "string"
            },
            {
              "internalType": "string",
              "name": "timestamp",
              "type": "string"
            }
          ],
          "internalType": "struct AgentPassport.Stamp",
          "name": "_stamp",
          "type": "tuple"
        }
      ],
      "name": "addStamp",
      "outputs": [],
      "stateMutability": "nonpayable",
      "type": "function"
    },
    {
      "inputs": [
        {
          "components": [
            {
              "internalType": "string",
              "name": "id",
              "type": "string"
            },
            {
              "internalType": "string",
              "name": "agentName",
              "type": "string"
            },
            {
              "internalType": "string",
              "name": "creator",
              "type": "string"
            },
            {
              "internalType": "string",
              "name": "reason",
              "type": "string"
            },
            {
              "internalType": "string",
              "name": "addedAt",
              "type": "string"
            }
          ],
          "internalType": "struct AgentPassport.BlacklistEntry",
          "name": "_entry",
          "type": "tuple"
        }
      ],
      "name": "addToBlacklist",
      "outputs": [],
      "stateMutability": "nonpayable",
      "type": "function"
    },
    {
      "inputs": [
        {
          "components": [
            {
              "internalType": "string",
              "name": "id",
              "type": "string"
            },
            {
              "internalType": "string",
              "name": "agentId",
              "type": "string"
            },
            {
              "internalType": "string",
              "name": "website",
              "type": "string"
            },
            {
              "internalType": "string",
              "name": "status",
              "type": "string"
            },
            {
              "internalType": "string",
              "name": "reason",
              "type": "string"
            },
            {
              "internalType": "string",
              "name": "issuedAt",
              "type": "string"
            }
          ],
          "internalType": "struct AgentPassport.Visa",
          "name": "_visa",
          "type": "tuple"
        }
      ],
      "name": "addVisa",
      "outputs": [],
      "stateMutability": "nonpayable",
      "type": "function"
    },
    {
      "inputs": [],
      "name": "authority",
      "outputs": [
        {
          "internalType": "address",
          "name": "",
          "type": "address"
        }
      ],
      "stateMutability": "view",
      "type": "function"
    },
    {
      "inputs": [
        {
          "internalType": "string",
          "name": "_id",
          "type": "string"
        }
      ],
      "name": "getAgent",
      "outputs": [
        {
          "components": [
            {
              "internalType": "string",
              "name": "id",
              "type": "string"
            },
            {
              "internalType": "string",
              "name": "name",
              "type": "string"
            },
            {
              "internalType": "string",
              "name": "creator",
              "type": "string"
            },
            {
              "internalType": "string",
              "name": "purpose",
              "type": "string"
            },
            {
              "internalType": "string",
              "name": "requestedPermissions",
              "type": "string"
            },
            {
              "internalType": "string",
              "name": "grantedPermissions",
              "type": "string"
            },
            {
              "internalType": "string",
              "name": "riskLevel",
              "type": "string"
            },
            {
              "internalType": "uint8",
              "name": "trustScore",
              "type": "uint8"
            },
            {
              "internalType": "uint256",
              "name": "spendingLimit",
              "type": "uint256"
            },
            {
              "internalType": "string",
              "name": "verificationStatus",
              "type": "string"
            },
            {
              "internalType": "string",
              "name": "createdAt",
              "type": "string"
            },
            {
              "internalType": "bool",
              "name": "exists",
              "type": "bool"
            }
          ],
          "internalType": "struct AgentPassport.Agent",
          "name": "",
          "type": "tuple"
        }
      ],
      "stateMutability": "view",
      "type": "function"
    },
    {
      "inputs": [],
      "name": "getAllAgentIds",
      "outputs": [
        {
          "internalType": "string[]",
          "name": "",
          "type": "string[]"
        }
      ],
      "stateMutability": "view",
      "type": "function"
    },
    {
      "inputs": [],
      "name": "getBlacklist",
      "outputs": [
        {
          "components": [
            {
              "internalType": "string",
              "name": "id",
              "type": "string"
            },
            {
              "internalType": "string",
              "name": "agentName",
              "type": "string"
            },
            {
              "internalType": "string",
              "name": "creator",
              "type": "string"
            },
            {
              "internalType": "string",
              "name": "reason",
              "type": "string"
            },
            {
              "internalType": "string",
              "name": "addedAt",
              "type": "string"
            }
          ],
          "internalType": "struct AgentPassport.BlacklistEntry[]",
          "name": "",
          "type": "tuple[]"
        }
      ],
      "stateMutability": "view",
      "type": "function"
    },
    {
      "inputs": [
        {
          "internalType": "string",
          "name": "_agentId",
          "type": "string"
        }
      ],
      "name": "getStamps",
      "outputs": [
        {
          "components": [
            {
              "internalType": "string",
              "name": "id",
              "type": "string"
            },
            {
              "internalType": "string",
              "name": "agentId",
              "type": "string"
            },
            {
              "internalType": "string",
              "name": "website",
              "type": "string"
            },
            {
              "internalType": "string",
              "name": "action",
              "type": "string"
            },
            {
              "internalType": "string",
              "name": "timestamp",
              "type": "string"
            }
          ],
          "internalType": "struct AgentPassport.Stamp[]",
          "name": "",
          "type": "tuple[]"
        }
      ],
      "stateMutability": "view",
      "type": "function"
    },
    {
      "inputs": [
        {
          "internalType": "string",
          "name": "_agentId",
          "type": "string"
        }
      ],
      "name": "getVisas",
      "outputs": [
        {
          "components": [
            {
              "internalType": "string",
              "name": "id",
              "type": "string"
            },
            {
              "internalType": "string",
              "name": "agentId",
              "type": "string"
            },
            {
              "internalType": "string",
              "name": "website",
              "type": "string"
            },
            {
              "internalType": "string",
              "name": "status",
              "type": "string"
            },
            {
              "internalType": "string",
              "name": "reason",
              "type": "string"
            },
            {
              "internalType": "string",
              "name": "issuedAt",
              "type": "string"
            }
          ],
          "internalType": "struct AgentPassport.Visa[]",
          "name": "",
          "type": "tuple[]"
        }
      ],
      "stateMutability": "view",
      "type": "function"
    },
    {
      "inputs": [
        {
          "components": [
            {
              "internalType": "string",
              "name": "id",
              "type": "string"
            },
            {
              "internalType": "string",
              "name": "name",
              "type": "string"
            },
            {
              "internalType": "string",
              "name": "creator",
              "type": "string"
            },
            {
              "internalType": "string",
              "name": "purpose",
              "type": "string"
            },
            {
              "internalType": "string",
              "name": "requestedPermissions",
              "type": "string"
            },
            {
              "internalType": "string",
              "name": "grantedPermissions",
              "type": "string"
            },
            {
              "internalType": "string",
              "name": "riskLevel",
              "type": "string"
            },
            {
              "internalType": "uint8",
              "name": "trustScore",
              "type": "uint8"
            },
            {
              "internalType": "uint256",
              "name": "spendingLimit",
              "type": "uint256"
            },
            {
              "internalType": "string",
              "name": "verificationStatus",
              "type": "string"
            },
            {
              "internalType": "string",
              "name": "createdAt",
              "type": "string"
            },
            {
              "internalType": "bool",
              "name": "exists",
              "type": "bool"
            }
          ],
          "internalType": "struct AgentPassport.Agent",
          "name": "_agent",
          "type": "tuple"
        }
      ],
      "name": "registerAgent",
      "outputs": [],
      "stateMutability": "nonpayable",
      "type": "function"
    },
    {
      "inputs": [
        {
          "internalType": "string",
          "name": "_id",
          "type": "string"
        },
        {
          "internalType": "uint8",
          "name": "_newScore",
          "type": "uint8"
        },
        {
          "internalType": "string",
          "name": "_reason",
          "type": "string"
        }
      ],
      "name": "updateTrustScore",
      "outputs": [],
      "stateMutability": "nonpayable",
      "type": "function"
    },
    {
      "inputs": [
        {
          "internalType": "string",
          "name": "_id",
          "type": "string"
        },
        {
          "internalType": "string",
          "name": "_status",
          "type": "string"
        }
      ],
      "name": "updateVerificationStatus",
      "outputs": [],
      "stateMutability": "nonpayable",
      "type": "function"
    }
  ],
  "bytecode": "0x608060405234801561000f575f80fd5b50335f806101000a81548173ffffffffffffffffffffffffffffffffffffffff021916908373ffffffffffffffffffffffffffffffffffffffff1602179055506136b18061005c5f395ff3fe608060405234801561000f575f80fd5b50600436106100b2575f3560e01c8063794464e91161006f578063794464e914610176578063b19829d0146101a6578063b4a60c36146101d6578063bf7e214f146101f2578063da495a2814610210578063e667f7b41461022c576100b2565b80631136a595146100b6578063338d6c30146100d45780633ef3e561146100f257806346163b311461010e57806350262d631461012a578063701747d71461015a575b5f80fd5b6100be610248565b6040516100cb9190612079565b60405180910390f35b6100dc61031c565b6040516100e991906121e3565b60405180910390f35b61010c60048036038101906101079190612601565b610647565b005b6101286004803603810190610123919061275d565b61093a565b005b610144600480360381019061013f91906127a4565b610ac8565b604051610151919061294f565b60405180910390f35b610174600480360381019061016f9190612ab4565b610ea1565b005b610190600480360381019061018b91906127a4565b611045565b60405161019d9190612c61565b60405180910390f35b6101c060048036038101906101bb91906127a4565b61163a565b6040516101cd9190612dcb565b60405180910390f35b6101f060048036038101906101eb9190612deb565b611983565b005b6101fa611b2c565b6040516102079190612eb2565b60405180910390f35b61022a60048036038101906102259190612fe0565b611b4f565b005b61024660048036038101906102419190613027565b611cbd565b005b60606002805480602002602001604051908101604052809291908181526020015f905b82821015610313578382905f5260205f20018054610288906130ca565b80601f01602080910402602001604051908101604052809291908181526020018280546102b4906130ca565b80156102ff5780601f106102d6576101008083540402835291602001916102ff565b820191905f5260205f20905b8154815290600101906020018083116102e257829003601f168201915b50505050508152602001906001019061026b565b50505050905090565b60606005805480602002602001604051908101604052809291908181526020015f905b8282101561063e578382905f5260205f2090600502016040518060a00160405290815f8201805461036f906130ca565b80601f016020809104026020016040519081016040528092919081815260200182805461039b906130ca565b80156103e65780601f106103bd576101008083540402835291602001916103e6565b820191905f5260205f20905b8154815290600101906020018083116103c957829003601f168201915b505050505081526020016001820180546103ff906130ca565b80601f016020809104026020016040519081016040528092919081815260200182805461042b906130ca565b80156104765780601f1061044d57610100808354040283529160200191610476565b820191905f5260205f20905b81548152906001019060200180831161045957829003601f168201915b5050505050815260200160028201805461048f906130ca565b80601f01602080910402602001604051908101604052809291908181526020018280546104bb906130ca565b80156105065780601f106104dd57610100808354040283529160200191610506565b820191905f5260205f20905b8154815290600101906020018083116104e957829003601f168201915b5050505050815260200160038201805461051f906130ca565b80601f016020809104026020016040519081016040528092919081815260200182805461054b906130ca565b80156105965780601f1061056d57610100808354040283529160200191610596565b820191905f5260205f20905b81548152906001019060200180831161057957829003601f168201915b505050505081526020016004820180546105af906130ca565b80601f01602080910402602001604051908101604052809291908181526020018280546105db906130ca565b80156106265780601f106105fd57610100808354040283529160200191610626565b820191905f5260205f20905b81548152906001019060200180831161060957829003601f168201915b5050505050815250508152602001906001019061033f565b50505050905090565b5f8054906101000a900473ffffffffffffffffffffffffffffffffffffffff1673ffffffffffffffffffffffffffffffffffffffff163373ffffffffffffffffffffffffffffffffffffffff16146106d4576040517f08c379a00000000000000000000000000000000000000000000000000000000081526004016106cb9061317a565b60405180910390fd5b6001815f01516040516106e791906131d2565b9081526020016040518091039020600b015f9054906101000a900460ff1615610745576040517f08c379a000000000000000000000000000000000000000000000000000000000815260040161073c90613232565b60405180910390fd5b806001825f015160405161075991906131d2565b90815260200160405180910390205f820151815f01908161077a91906133ed565b50602082015181600101908161079091906133ed565b5060408201518160020190816107a691906133ed565b5060608201518160030190816107bc91906133ed565b5060808201518160040190816107d291906133ed565b5060a08201518160050190816107e891906133ed565b5060c08201518160060190816107fe91906133ed565b5060e0820151816007015f6101000a81548160ff021916908360ff160217905550610100820151816008015561012082015181600901908161084091906133ed565b5061014082015181600a01908161085791906133ed565b5061016082015181600b015f6101000a81548160ff021916908315150217905550905050600180825f015160405161088f91906131d2565b9081526020016040518091039020600b015f6101000a81548160ff0219169083151502179055506002815f0151908060018154018082558091505060019003905f5260205f20015f9091909190915090816108ea91906133ed565b507f7c1a433cb1ca4e0641a9d53129738d01c5d37d0ca1381279e80ebb7c7f0d35ae815f0151826020015183604001518460e0015160405161092f9493929190613503565b60405180910390a150565b5f8054906101000a900473ffffffffffffffffffffffffffffffffffffffff1673ffffffffffffffffffffffffffffffffffffffff163373ffffffffffffffffffffffffffffffffffffffff16146109c7576040517f08c379a00000000000000000000000000000000000000000000000000000000081526004016109be9061317a565b60405180910390fd5b600481602001516040516109db91906131d2565b908152602001604051809103902081908060018154018082558091505060019003905f5260205f2090600502015f909190919091505f820151815f019081610a2391906133ed565b506020820151816001019081610a3991906133ed565b506040820151816002019081610a4f91906133ed565b506060820151816003019081610a6591906133ed565b506080820151816004019081610a7b91906133ed565b5050507f9e5b9b0f588e83678e7bd9812d6498c1d1d3640563b6d6538aca59fbf07dcdf8816020015182604001518360600151604051610abd9392919061355b565b60405180910390a150565b6060600382604051610ada91906131d2565b9081526020016040518091039020805480602002602001604051908101604052809291908181526020015f905b82821015610e96578382905f5260205f2090600602016040518060c00160405290815f82018054610b37906130ca565b80601f0160208091040260200160405190810160405280929190818152602001828054610b63906130ca565b8015610bae5780601f10610b8557610100808354040283529160200191610bae565b820191905f5260205f20905b815481529060010190602001808311610b9157829003601f168201915b50505050508152602001600182018054610bc7906130ca565b80601f0160208091040260200160405190810160405280929190818152602001828054610bf3906130ca565b8015610c3e5780601f10610c1557610100808354040283529160200191610c3e565b820191905f5260205f20905b815481529060010190602001808311610c2157829003601f168201915b50505050508152602001600282018054610c57906130ca565b80601f0160208091040260200160405190810160405280929190818152602001828054610c83906130ca565b8015610cce5780601f10610ca557610100808354040283529160200191610cce565b820191905f5260205f20905b815481529060010190602001808311610cb157829003601f168201915b50505050508152602001600382018054610ce7906130ca565b80601f0160208091040260200160405190810160405280929190818152602001828054610d13906130ca565b8015610d5e5780601f10610d3557610100808354040283529160200191610d5e565b820191905f5260205f20905b815481529060010190602001808311610d4157829003601f168201915b50505050508152602001600482018054610d77906130ca565b80601f0160208091040260200160405190810160405280929190818152602001828054610da3906130ca565b8015610dee5780601f10610dc557610100808354040283529160200191610dee565b820191905f5260205f20905b815481529060010190602001808311610dd157829003601f168201915b50505050508152602001600582018054610e07906130ca565b80601f0160208091040260200160405190810160405280929190818152602001828054610e33906130ca565b8015610e7e5780601f10610e5557610100808354040283529160200191610e7e565b820191905f5260205f20905b815481529060010190602001808311610e6157829003601f168201915b50505050508152505081526020019060010190610b07565b505050509050919050565b5f8054906101000a900473ffffffffffffffffffffffffffffffffffffffff1673ffffffffffffffffffffffffffffffffffffffff163373ffffffffffffffffffffffffffffffffffffffff1614610f2e576040517f08c379a0000000000000000000000000000000000000000000000000000000008152600401610f259061317a565b60405180910390fd5b60038160200151604051610f4291906131d2565b908152602001604051809103902081908060018154018082558091505060019003905f5260205f2090600602015f909190919091505f820151815f019081610f8a91906133ed565b506020820151816001019081610fa091906133ed565b506040820151816002019081610fb691906133ed565b506060820151816003019081610fcc91906133ed565b506080820151816004019081610fe291906133ed565b5060a0820151816005019081610ff891906133ed565b5050507fe61e8cd3ed6856fe56e1fa93789118c6e8da017636860935540f7bc10c3364d481602001518260400151836060015160405161103a9392919061355b565b60405180910390a150565b61104d611ed1565b60018260405161105d91906131d2565b9081526020016040518091039020600b015f9054906101000a900460ff166110ba576040517f08c379a00000000000000000000000000000000000000000000000000000000081526004016110b1906135ef565b60405180910390fd5b6001826040516110ca91906131d2565b9081526020016040518091039020604051806101800160405290815f820180546110f3906130ca565b80601f016020809104026020016040519081016040528092919081815260200182805461111f906130ca565b801561116a5780601f106111415761010080835404028352916020019161116a565b820191905f5260205f20905b81548152906001019060200180831161114d57829003601f168201915b50505050508152602001600182018054611183906130ca565b80601f01602080910402602001604051908101604052809291908181526020018280546111af906130ca565b80156111fa5780601f106111d1576101008083540402835291602001916111fa565b820191905f5260205f20905b8154815290600101906020018083116111dd57829003601f168201915b50505050508152602001600282018054611213906130ca565b80601f016020809104026020016040519081016040528092919081815260200182805461123f906130ca565b801561128a5780601f106112615761010080835404028352916020019161128a565b820191905f5260205f20905b81548152906001019060200180831161126d57829003601f168201915b505050505081526020016003820180546112a3906130ca565b80601f01602080910402602001604051908101604052809291908181526020018280546112cf906130ca565b801561131a5780601f106112f15761010080835404028352916020019161131a565b820191905f5260205f20905b8154815290600101906020018083116112fd57829003601f168201915b50505050508152602001600482018054611333906130ca565b80601f016020809104026020016040519081016040528092919081815260200182805461135f906130ca565b80156113aa5780601f10611381576101008083540402835291602001916113aa565b820191905f5260205f20905b81548152906001019060200180831161138d57829003601f168201915b505050505081526020016005820180546113c3906130ca565b80601f01602080910402602001604051908101604052809291908181526020018280546113ef906130ca565b801561143a5780601f106114115761010080835404028352916020019161143a565b820191905f5260205f20905b81548152906001019060200180831161141d57829003601f168201915b50505050508152602001600682018054611453906130ca565b80601f016020809104026020016040519081016040528092919081815260200182805461147f906130ca565b80156114ca5780601f106114a1576101008083540402835291602001916114ca565b820191905f5260205f20905b8154815290600101906020018083116114ad57829003601f168201915b50505050508152602001600782015f9054906101000a900460ff1660ff1660ff16815260200160088201548152602001600982018054611509906130ca565b80601f0160208091040260200160405190810160405280929190818152602001828054611535906130ca565b80156115805780601f1061155757610100808354040283529160200191611580565b820191905f5260205f20905b81548152906001019060200180831161156357829003601f168201915b50505050508152602001600a82018054611599906130ca565b80601f01602080910402602001604051908101604052809291908181526020018280546115c5906130ca565b80156116105780601f106115e757610100808354040283529160200191611610565b820191905f5260205f20905b8154815290600101906020018083116115f357829003601f168201915b50505050508152602001600b82015f9054906101000a900460ff1615151515815250509050919050565b606060048260405161164c91906131d2565b9081526020016040518091039020805480602002602001604051908101604052809291908181526020015f905b82821015611978578382905f5260205f2090600502016040518060a00160405290815f820180546116a9906130ca565b80601f01602080910402602001604051908101604052809291908181526020018280546116d5906130ca565b80156117205780601f106116f757610100808354040283529160200191611720565b820191905f5260205f20905b81548152906001019060200180831161170357829003601f168201915b50505050508152602001600182018054611739906130ca565b80601f0160208091040260200160405190810160405280929190818152602001828054611765906130ca565b80156117b05780601f10611787576101008083540402835291602001916117b0565b820191905f5260205f20905b81548152906001019060200180831161179357829003601f168201915b505050505081526020016002820180546117c9906130ca565b80601f01602080910402602001604051908101604052809291908181526020018280546117f5906130ca565b80156118405780601f1061181757610100808354040283529160200191611840565b820191905f5260205f20905b81548152906001019060200180831161182357829003601f168201915b50505050508152602001600382018054611859906130ca565b80601f0160208091040260200160405190810160405280929190818152602001828054611885906130ca565b80156118d05780601f106118a7576101008083540402835291602001916118d0565b820191905f5260205f20905b8154815290600101906020018083116118b357829003601f168201915b505050505081526020016004820180546118e9906130ca565b80601f0160208091040260200160405190810160405280929190818152602001828054611915906130ca565b80156119605780601f1061193757610100808354040283529160200191611960565b820191905f5260205f20905b81548152906001019060200180831161194357829003601f168201915b50505050508152505081526020019060010190611679565b505050509050919050565b5f8054906101000a900473ffffffffffffffffffffffffffffffffffffffff1673ffffffffffffffffffffffffffffffffffffffff163373ffffffffffffffffffffffffffffffffffffffff1614611a10576040517f08c379a0000000000000000000000000000000000000000000000000000000008152600401611a079061317a565b60405180910390fd5b600183604051611a2091906131d2565b9081526020016040518091039020600b015f9054906101000a900460ff16611a7d576040517f08c379a0000000000000000000000000000000000000000000000000000000008152600401611a74906135ef565b60405180910390fd5b5f600184604051611a8e91906131d2565b90815260200160405180910390206007015f9054906101000a900460ff16905082600185604051611abf91906131d2565b90815260200160405180910390206007015f6101000a81548160ff021916908360ff1602179055507fbed416ac7c6897ba40efe0d7bfa72886ee1064969a97c2dc15d0bc7d6d120d8c8482858542604051611b1e95949392919061361c565b60405180910390a150505050565b5f8054906101000a900473ffffffffffffffffffffffffffffffffffffffff1681565b5f8054906101000a900473ffffffffffffffffffffffffffffffffffffffff1673ffffffffffffffffffffffffffffffffffffffff163373ffffffffffffffffffffffffffffffffffffffff1614611bdc576040517f08c379a0000000000000000000000000000000000000000000000000000000008152600401611bd39061317a565b60405180910390fd5b600581908060018154018082558091505060019003905f5260205f2090600502015f909190919091505f820151815f019081611c1891906133ed565b506020820151816001019081611c2e91906133ed565b506040820151816002019081611c4491906133ed565b506060820151816003019081611c5a91906133ed565b506080820151816004019081611c7091906133ed565b5050507f4da4a3336b8c5ef677054a1cc21d14102a9ad16a17989badc430491cf0c7720e816020015182604001518360600151604051611cb29392919061355b565b60405180910390a150565b5f8054906101000a900473ffffffffffffffffffffffffffffffffffffffff1673ffffffffffffffffffffffffffffffffffffffff163373ffffffffffffffffffffffffffffffffffffffff1614611d4a576040517f08c379a0000000000000000000000000000000000000000000000000000000008152600401611d419061317a565b60405180910390fd5b600182604051611d5a91906131d2565b9081526020016040518091039020600b015f9054906101000a900460ff16611db7576040517f08c379a0000000000000000000000000000000000000000000000000000000008152600401611dae906135ef565b60405180910390fd5b5f600183604051611dc891906131d2565b90815260200160405180910390206009018054611de4906130ca565b80601f0160208091040260200160405190810160405280929190818152602001828054611e10906130ca565b8015611e5b5780601f10611e3257610100808354040283529160200191611e5b565b820191905f5260205f20905b815481529060010190602001808311611e3e57829003601f168201915b5050505050905081600184604051611e7391906131d2565b90815260200160405180910390206009019081611e9091906133ed565b507f1a443a3423db06a50d678a05078520976aeadd289215ec4dbe1ab9238fe4d402838284604051611ec49392919061355b565b60405180910390a1505050565b604051806101800160405280606081526020016060815260200160608152602001606081526020016060815260200160608152602001606081526020015f60ff1681526020015f815260200160608152602001606081526020015f151581525090565b5f81519050919050565b5f82825260208201905092915050565b5f819050602082019050919050565b5f81519050919050565b5f82825260208201905092915050565b5f5b83811015611f94578082015181840152602081019050611f79565b5f8484015250505050565b5f601f19601f8301169050919050565b5f611fb982611f5d565b611fc38185611f67565b9350611fd3818560208601611f77565b611fdc81611f9f565b840191505092915050565b5f611ff28383611faf565b905092915050565b5f602082019050919050565b5f61201082611f34565b61201a8185611f3e565b93508360208202850161202c85611f4e565b805f5b8581101561206757848403895281516120488582611fe7565b945061205383611ffa565b925060208a0199505060018101905061202f565b50829750879550505050505092915050565b5f6020820190508181035f8301526120918184612006565b905092915050565b5f81519050919050565b5f82825260208201905092915050565b5f819050602082019050919050565b5f60a083015f8301518482035f8601526120dc8282611faf565b915050602083015184820360208601526120f68282611faf565b915050604083015184820360408601526121108282611faf565b9150506060830151848203606086015261212a8282611faf565b915050608083015184820360808601526121448282611faf565b9150508091505092915050565b5f61215c83836120c2565b905092915050565b5f602082019050919050565b5f61217a82612099565b61218481856120a3565b935083602082028501612196856120b3565b805f5b858110156121d157848403895281516121b28582612151565b94506121bd83612164565b925060208a01995050600181019050612199565b50829750879550505050505092915050565b5f6020820190508181035f8301526121fb8184612170565b905092915050565b5f604051905090565b5f80fd5b5f80fd5b5f80fd5b7f4e487b71000000000000000000000000000000000000000000000000000000005f52604160045260245ffd5b61224e82611f9f565b810181811067ffffffffffffffff8211171561226d5761226c612218565b5b80604052505050565b5f61227f612203565b905061228b8282612245565b919050565b5f80fd5b5f80fd5b5f80fd5b5f67ffffffffffffffff8211156122b6576122b5612218565b5b6122bf82611f9f565b9050602081019050919050565b828183375f83830152505050565b5f6122ec6122e78461229c565b612276565b90508281526020810184848401111561230857612307612298565b5b6123138482856122cc565b509392505050565b5f82601f83011261232f5761232e612294565b5b813561233f8482602086016122da565b91505092915050565b5f60ff82169050919050565b61235d81612348565b8114612367575f80fd5b50565b5f8135905061237881612354565b92915050565b5f819050919050565b6123908161237e565b811461239a575f80fd5b50565b5f813590506123ab81612387565b92915050565b5f8115159050919050565b6123c5816123b1565b81146123cf575f80fd5b50565b5f813590506123e0816123bc565b92915050565b5f61018082840312156123fc576123fb612214565b5b612407610180612276565b90505f82013567ffffffffffffffff81111561242657612425612290565b5b6124328482850161231b565b5f83015250602082013567ffffffffffffffff81111561245557612454612290565b5b6124618482850161231b565b602083015250604082013567ffffffffffffffff81111561248557612484612290565b5b6124918482850161231b565b604083015250606082013567ffffffffffffffff8111156124b5576124b4612290565b5b6124c18482850161231b565b606083015250608082013567ffffffffffffffff8111156124e5576124e4612290565b5b6124f18482850161231b565b60808301525060a082013567ffffffffffffffff81111561251557612514612290565b5b6125218482850161231b565b60a08301525060c082013567ffffffffffffffff81111561254557612544612290565b5b6125518482850161231b565b60c08301525060e06125658482850161236a565b60e08301525061010061257a8482850161239d565b6101008301525061012082013567ffffffffffffffff8111156125a05761259f612290565b5b6125ac8482850161231b565b6101208301525061014082013567ffffffffffffffff8111156125d2576125d1612290565b5b6125de8482850161231b565b610140830152506101606125f4848285016123d2565b6101608301525092915050565b5f602082840312156126165761261561220c565b5b5f82013567ffffffffffffffff81111561263357612632612210565b5b61263f848285016123e6565b91505092915050565b5f60a0828403121561265d5761265c612214565b5b61266760a0612276565b90505f82013567ffffffffffffffff81111561268657612685612290565b5b6126928482850161231b565b5f83015250602082013567ffffffffffffffff8111156126b5576126b4612290565b5b6126c18482850161231b565b602083015250604082013567ffffffffffffffff8111156126e5576126e4612290565b5b6126f18482850161231b565b604083015250606082013567ffffffffffffffff81111561271557612714612290565b5b6127218482850161231b565b606083015250608082013567ffffffffffffffff81111561274557612744612290565b5b6127518482850161231b565b60808301525092915050565b5f602082840312156127725761277161220c565b5b5f82013567ffffffffffffffff81111561278f5761278e612210565b5b61279b84828501612648565b91505092915050565b5f602082840312156127b9576127b861220c565b5b5f82013567ffffffffffffffff8111156127d6576127d5612210565b5b6127e28482850161231b565b91505092915050565b5f81519050919050565b5f82825260208201905092915050565b5f819050602082019050919050565b5f60c083015f8301518482035f86015261282e8282611faf565b915050602083015184820360208601526128488282611faf565b915050604083015184820360408601526128628282611faf565b9150506060830151848203606086015261287c8282611faf565b915050608083015184820360808601526128968282611faf565b91505060a083015184820360a08601526128b08282611faf565b9150508091505092915050565b5f6128c88383612814565b905092915050565b5f602082019050919050565b5f6128e6826127eb565b6128f081856127f5565b93508360208202850161290285612805565b805f5b8581101561293d578484038952815161291e85826128bd565b9450612929836128d0565b925060208a01995050600181019050612905565b50829750879550505050505092915050565b5f6020820190508181035f83015261296781846128dc565b905092915050565b5f60c0828403121561298457612983612214565b5b61298e60c0612276565b90505f82013567ffffffffffffffff8111156129ad576129ac612290565b5b6129b98482850161231b565b5f83015250602082013567ffffffffffffffff8111156129dc576129db612290565b5b6129e88482850161231b565b602083015250604082013567ffffffffffffffff811115612a0c57612a0b612290565b5b612a188482850161231b565b604083015250606082013567ffffffffffffffff811115612a3c57612a3b612290565b5b612a488482850161231b565b606083015250608082013567ffffffffffffffff811115612a6c57612a6b612290565b5b612a788482850161231b565b60808301525060a082013567ffffffffffffffff811115612a9c57612a9b612290565b5b612aa88482850161231b565b60a08301525092915050565b5f60208284031215612ac957612ac861220c565b5b5f82013567ffffffffffffffff811115612ae657612ae5612210565b5b612af28482850161296f565b91505092915050565b612b0481612348565b82525050565b612b138161237e565b82525050565b612b22816123b1565b82525050565b5f61018083015f8301518482035f860152612b438282611faf565b91505060208301518482036020860152612b5d8282611faf565b91505060408301518482036040860152612b778282611faf565b91505060608301518482036060860152612b918282611faf565b91505060808301518482036080860152612bab8282611faf565b91505060a083015184820360a0860152612bc58282611faf565b91505060c083015184820360c0860152612bdf8282611faf565b91505060e0830151612bf460e0860182612afb565b50610100830151612c09610100860182612b0a565b50610120830151848203610120860152612c238282611faf565b915050610140830151848203610140860152612c3f8282611faf565b915050610160830151612c56610160860182612b19565b508091505092915050565b5f6020820190508181035f830152612c798184612b28565b905092915050565b5f81519050919050565b5f82825260208201905092915050565b5f819050602082019050919050565b5f60a083015f8301518482035f860152612cc48282611faf565b91505060208301518482036020860152612cde8282611faf565b91505060408301518482036040860152612cf88282611faf565b91505060608301518482036060860152612d128282611faf565b91505060808301518482036080860152612d2c8282611faf565b9150508091505092915050565b5f612d448383612caa565b905092915050565b5f602082019050919050565b5f612d6282612c81565b612d6c8185612c8b565b935083602082028501612d7e85612c9b565b805f5b85811015612db95784840389528151612d9a8582612d39565b9450612da583612d4c565b925060208a01995050600181019050612d81565b50829750879550505050505092915050565b5f6020820190508181035f830152612de38184612d58565b905092915050565b5f805f60608486031215612e0257612e0161220c565b5b5f84013567ffffffffffffffff811115612e1f57612e1e612210565b5b612e2b8682870161231b565b9350506020612e3c8682870161236a565b925050604084013567ffffffffffffffff811115612e5d57612e5c612210565b5b612e698682870161231b565b9150509250925092565b5f73ffffffffffffffffffffffffffffffffffffffff82169050919050565b5f612e9c82612e73565b9050919050565b612eac81612e92565b82525050565b5f602082019050612ec55f830184612ea3565b92915050565b5f60a08284031215612ee057612edf612214565b5b612eea60a0612276565b90505f82013567ffffffffffffffff811115612f0957612f08612290565b5b612f158482850161231b565b5f83015250602082013567ffffffffffffffff811115612f3857612f37612290565b5b612f448482850161231b565b602083015250604082013567ffffffffffffffff811115612f6857612f67612290565b5b612f748482850161231b565b604083015250606082013567ffffffffffffffff811115612f9857612f97612290565b5b612fa48482850161231b565b606083015250608082013567ffffffffffffffff811115612fc857612fc7612290565b5b612fd48482850161231b565b60808301525092915050565b5f60208284031215612ff557612ff461220c565b5b5f82013567ffffffffffffffff81111561301257613011612210565b5b61301e84828501612ecb565b91505092915050565b5f806040838503121561303d5761303c61220c565b5b5f83013567ffffffffffffffff81111561305a57613059612210565b5b6130668582860161231b565b925050602083013567ffffffffffffffff81111561308757613086612210565b5b6130938582860161231b565b9150509250929050565b7f4e487b71000000000000000000000000000000000000000000000000000000005f52602260045260245ffd5b5f60028204905060018216806130e157607f821691505b6020821081036130f4576130f361309d565b5b50919050565b5f82825260208201905092915050565b7f4f6e6c7920617574686f726974792063616e20706572666f726d2074686973205f8201527f616374696f6e0000000000000000000000000000000000000000000000000000602082015250565b5f6131646026836130fa565b915061316f8261310a565b604082019050919050565b5f6020820190508181035f83015261319181613158565b9050919050565b5f81905092915050565b5f6131ac82611f5d565b6131b68185613198565b93506131c6818560208601611f77565b80840191505092915050565b5f6131dd82846131a2565b915081905092915050565b7f4167656e7420616c7265616479206578697374730000000000000000000000005f82015250565b5f61321c6014836130fa565b9150613227826131e8565b602082019050919050565b5f6020820190508181035f83015261324981613210565b9050919050565b5f819050815f5260205f209050919050565b5f6020601f8301049050919050565b5f82821b905092915050565b5f600883026132ac7fffffffffffffffffffffffffffffffffffffffffffffffffffffffffffffffff82613271565b6132b68683613271565b95508019841693508086168417925050509392505050565b5f819050919050565b5f6132f16132ec6132e78461237e565b6132ce565b61237e565b9050919050565b5f819050919050565b61330a836132d7565b61331e613316826132f8565b84845461327d565b825550505050565b5f90565b613332613326565b61333d818484613301565b505050565b5b81811015613360576133555f8261332a565b600181019050613343565b5050565b601f8211156133a55761337681613250565b61337f84613262565b8101602085101561338e578190505b6133a261339a85613262565b830182613342565b50505b505050565b5f82821c905092915050565b5f6133c55f19846008026133aa565b1980831691505092915050565b5f6133dd83836133b6565b9150826002028217905092915050565b6133f682611f5d565b67ffffffffffffffff81111561340f5761340e612218565b5b61341982546130ca565b613424828285613364565b5f60209050601f831160018114613455575f8415613443578287015190505b61344d85826133d2565b8655506134b4565b601f19841661346386613250565b5f5b8281101561348a57848901518255600182019150602085019450602081019050613465565b868310156134a757848901516134a3601f8916826133b6565b8355505b6001600288020188555050505b505050505050565b5f6134c682611f5d565b6134d081856130fa565b93506134e0818560208601611f77565b6134e981611f9f565b840191505092915050565b6134fd81612348565b82525050565b5f6080820190508181035f83015261351b81876134bc565b9050818103602083015261352f81866134bc565b9050818103604083015261354381856134bc565b905061355260608301846134f4565b95945050505050565b5f6060820190508181035f83015261357381866134bc565b9050818103602083015261358781856134bc565b9050818103604083015261359b81846134bc565b9050949350505050565b7f4167656e7420646f6573206e6f742065786973740000000000000000000000005f82015250565b5f6135d96014836130fa565b91506135e4826135a5565b602082019050919050565b5f6020820190508181035f830152613606816135cd565b9050919050565b6136168161237e565b82525050565b5f60a0820190508181035f83015261363481886134bc565b905061364360208301876134f4565b61365060408301866134f4565b818103606083015261366281856134bc565b9050613671608083018461360d565b969550505050505056fea2646970667358221220b8a6ebf2d7e0f1d9e6dcb2da7299f257873c61775de4983c9296d46fe01c03d564736f6c63430008140033",
  "linkReferences": {},
  "deployedLinkReferences": {},
  "immutableReferences": {},
  "inputSourceName": "project/contracts/AgentPassport.sol",
  "buildInfoId": "solc-0_8_20-27f3a7e4339bbf78f82b3de6f2bd1567bd93343b"
}